{
  "_format": "hh-sol-artifact-1",
  "contractName": "WrappedToken",
  "sourceName": "contracts/WrappedToken.sol",
  "abi": [
    {
      "inputs": [],
      "stateMutability": "nonpayable",
      "type": "constructor"
    },
    {
      "inputs": [
        {
          "internalType": "address",
          "name": "spender",
          "type": "address"
        },
        {
          "internalType": "uint256",
          "name": "allowance",
          "type": "uint256"
        },
        {
          "internalType": "uint256",
          "name": "needed",
          "type": "uint256"
        }
      ],
      "name": "ERC20InsufficientAllowance",
      "type": "error"
    },
    {
      "inputs": [
        {
          "internalType": "address",
          "name": "sender",
          "type": "address"
        },
        {
          "internalType": "uint256",
          "name": "balance",
          "type": "uint256"
        },
        {
          "internalType": "uint256",
          "name": "needed",
          "type": "uint256"
        }
      ],
      "name": "ERC20InsufficientBalance",
      "type": "error"
    },
    {
      "inputs": [
        {
          "internalType": "address",
          "name": "approver",
          "type": "address"
        }
      ],
      "name": "ERC20InvalidApprover",
      "type": "error"
    },
    {
      "inputs": [
        {
          "internalType": "address",
          "name": "receiver",
          "type": "address"
        }
      ],
      "name": "ERC20InvalidReceiver",
      "type": "error"
    },
    {
      "inputs": [
        {
          "internalType": "address",
          "name": "sender",
          "type": "address"
        }
      ],
      "name": "ERC20InvalidSender",
      "type": "error"
    },
    {
      "inputs": [
        {
          "internalType": "address",
          "name": "spender",
          "type": "address"
        }
      ],
      "name": "ERC20InvalidSpender",
      "type": "error"
    },
    {
      "inputs": [
        {
          "internalType": "address",
          "name": "owner",
          "type": "address"
        }
      ],
      "name": "OwnableInvalidOwner",
      "type": "error"
    },
    {
      "inputs": [
        {
          "internalType": "address",
          "name": "account",
          "type": "address"
        }
      ],
      "name": "OwnableUnauthorizedAccount",
      "type": "error"
    },
    {
      "anonymous": false,
      "inputs": [
        {
          "indexed": true,
          "internalType": "address",
          "name": "owner",
          "type": "address"
        },
        {
          "indexed": true,
          "internalType": "address",
          "name": "spender",
          "type": "address"
        },
        {
          "indexed": false,
          "internalType": "uint256",
          "name": "value",
          "type": "uint256"
        }
      ],
      "name": "Approval",
      "type": "event"
    },
    {
      "anonymous": false,
      "inputs": [
        {
          "indexed": true,
          "internalType": "address",
          "name": "oldBridge",
          "type": "address"
        },
        {
          "indexed": true,
          "internalType": "address",
          "name": "newBridge",
          "type": "address"
        }
      ],
      "name": "BridgeUpdated",
      "type": "event"
    },
    {
      "anonymous": false,
      "inputs": [
        {
          "indexed": true,
          "internalType": "address",
          "name": "previousOwner",
          "type": "address"
        },
        {
          "indexed": true,
          "internalType": "address",
          "name": "newOwner",
          "type": "address"
        }
      ],
      "name": "OwnershipTransferred",
      "type": "event"
    },
    {
      "anonymous": false,
      "inputs": [
        {
          "indexed": true,
          "internalType": "address",
          "name": "from",
          "type": "address"
        },
        {
          "indexed": true,
          "internalType": "address",
          "name": "to",
          "type": "address"
        },
        {
          "indexed": false,
          "internalType": "uint256",
          "name": "value",
          "type": "uint256"
        }
      ],
      "name": "Transfer",
      "type": "event"
    },
    {
      "inputs": [
        {
          "internalType": "address",
          "name": "owner",
          "type": "address"
        },
        {
          "internalType": "address",
          "name": "spender",
          "type": "address"
        }
      ],
      "name": "allowance",
      "outputs": [
        {
          "internalType": "uint256",
          "name": "",
          "type": "uint256"
        }
      ],
      "stateMutability": "view",
      "type": "function"
    },
    {
      "inputs": [
        {
          "internalType": "address",
          "name": "spender",
          "type": "address"
        },
        {
          "internalType": "uint256",
          "name": "value",
          "type": "uint256"
        }
      ],
      "name": "approve",
      "outputs": [
        {
          "internalType": "bool",
          "name": "",
          "type": "bool"
        }
      ],
      "stateMutability": "nonpayable",
      "type": "function"
    },
    {
      "inputs": [
        {
          "internalType": "address",
          "name": "account",
          "type": "address"
        }
      ],
      "name": "balanceOf",
      "outputs": [
        {
          "internalType": "uint256",
          "name": "",
          "type": "uint256"
        }
      ],
      "stateMutability": "view",
      "type": "function"
    },
    {
      "inputs": [],
      "name": "bridge",
      "outputs": [
        {
          "internalType": "address",
          "name": "",
          "type": "address"
        }
      ],
      "stateMutability": "view",
      "type": "function"
    },
    {
      "inputs": [
        {
          "internalType": "address",
          "name": "from",
          "type": "address"
        },
        {
          "internalType": "uint256",
          "name": "amount",
          "type": "uint256"
        }
      ],
      "name": "burn",
      "outputs": [],
      "stateMutability": "nonpayable",
      "type": "function"
    },
    {
      "inputs": [],
      "name": "decimals",
      "outputs": [
        {
          "internalType": "uint8",
          "name": "",
          "type": "uint8"
        }
      ],
      "stateMutability": "pure",
      "type": "function"
    },
    {
      "inputs": [
        {
          "internalType": "address",
          "name": "to",
          "type": "address"
        },
        {
          "internalType": "uint256",
          "name": "amount",
          "type": "uint256"
        }
      ],
      "name": "mint",
      "outputs": [],
      "stateMutability": "nonpayable",
      "type": "function"
    },
    {
      "inputs": [],
      "name": "name",
      "outputs": [
        {
          "internalType": "string",
          "name": "",
          "type": "string"
        }
      ],
      "stateMutability": "view",
      "type": "function"
    },
    {
      "inputs": [],
      "name": "owner",
      "outputs": [
        {
          "internalType": "address",
          "name": "",
          "type": "address"
        }
      ],
      "stateMutability": "view",
      "type": "function"
    },
    {
      "inputs": [],
      "name": "renounceOwnership",
      "outputs": [],
      "stateMutability": "nonpayable",
      "type": "function"
    },
    {
      "inputs": [
        {
          "internalType": "address",
          "name": "_bridge",
          "type": "address"
        }
      ],
      "name": "setBridge",
      "outputs": [],
      "stateMutability": "nonpayable",
      "type": "function"
    },
    {
      "inputs": [],
      "name": "symbol",
      "outputs": [
        {
          "internalType": "string",
          "name": "",
          "type": "string"
        }
      ],
      "stateMutability": "view",
      "type": "function"
    },
    {
      "inputs": [],
      "name": "totalSupply",
      "outputs": [
        {
          "internalType": "uint256",
          "name": "",
          "type": "uint256"
        }
      ],
      "stateMutability": "view",
      "type": "function"
    },
    {
      "inputs": [
        {
          "internalType": "address",
          "name": "to",
          "type": "address"
        },
        {
          "internalType": "uint256",
          "name": "value",
          "type": "uint256"
        }
      ],
      "name": "transfer",
      "outputs": [
        {
          "internalType": "bool",
          "name": "",
          "type": "bool"
        }
      ],
      "stateMutability": "nonpayable",
      "type": "function"
    },
    {
      "inputs": [
        {
          "internalType": "address",
          "name": "from",
          "type": "address"
        },
        {
          "internalType": "address",
          "name": "to",
          "type": "address"
        },
        {
          "internalType": "uint256",
          "name": "value",
          "type": "uint256"
        }
      ],
      "name": "transferFrom",
      "outputs": [
        {
          "internalType": "bool",
          "name": "",
          "type": "bool"
        }
      ],
      "stateMutability": "nonpayable",
      "type": "function"
    },
    {
      "inputs": [
        {
          "internalType": "address",
          "name": "newOwner",
          "type": "address"
        }
      ],
      "name": "transferOwnership",
      "outputs": [],
      "stateMutability": "nonpayable",
      "type": "function"
    }
  ],
  "bytecode": "0x60806040523480156200001157600080fd5b50336040518060400160405280600e81526020016d57726170706564204d4154434f4d60901b81525060405180604001604052806004815260200163774d434d60e01b8152508160039081620000689190620001b2565b506004620000778282620001b2565b5050506001600160a01b038116620000a957604051631e4fbdf760e01b81526000600482015260240160405180910390fd5b620000b481620000bb565b506200027e565b600580546001600160a01b038381166001600160a01b0319831681179093556040519116919082907f8be0079c531659141344cd1fd0a4f28419497f9722a3daafe3b4186f6b6457e090600090a35050565b634e487b7160e01b600052604160045260246000fd5b600181811c908216806200013857607f821691505b6020821081036200015957634e487b7160e01b600052602260045260246000fd5b50919050565b601f821115620001ad57600081815260208120601f850160051c81016020861015620001885750805b601f850160051c820191505b81811015620001a95782815560010162000194565b5050505b505050565b81516001600160401b03811115620001ce57620001ce6200010d565b620001e681620001df845462000123565b846200015f565b602080601f8311600181146200021e5760008415620002055750858301515b600019600386901b1c1916600185901b178555620001a9565b600085815260208120601f198616915b828110156200024f578886015182559484019460019091019084016200022e565b50858210156200026e5787850151600019600388901b60f8161c191681555b5050505050600190811b01905550565b610acb806200028e6000396000f3fe608060405234801561001057600080fd5b50600436106101005760003560e01c80638da5cb5b11610097578063a9059cbb11610066578063a9059cbb14610213578063dd62ed3e14610226578063e78cea921461025f578063f2fde38b1461027257600080fd5b80638da5cb5b146101c05780638dd14802146101e557806395d89b41146101f85780639dc29fac1461020057600080fd5b8063313ce567116100d3578063313ce5671461016b57806340c10f191461017a57806370a082311461018f578063715018a6146101b857600080fd5b806306fdde0314610105578063095ea7b31461012357806318160ddd1461014657806323b872dd14610158575b600080fd5b61010d610285565b60405161011a91906108cf565b60405180910390f35b610136610131366004610939565b610317565b604051901515815260200161011a565b6002545b60405190815260200161011a565b610136610166366004610963565b610331565b6040516012815260200161011a565b61018d610188366004610939565b610355565b005b61014a61019d36600461099f565b6001600160a01b031660009081526020819052604090205490565b61018d610396565b6005546001600160a01b03165b6040516001600160a01b03909116815260200161011a565b61018d6101f336600461099f565b6103aa565b61010d610466565b61018d61020e366004610939565b610475565b610136610221366004610939565b6104a9565b61014a6102343660046109c1565b6001600160a01b03918216600090815260016020908152604080832093909416825291909152205490565b6006546101cd906001600160a01b031681565b61018d61028036600461099f565b6104b7565b606060038054610294906109f4565b80601f01602080910402602001604051908101604052809291908181526020018280546102c0906109f4565b801561030d5780601f106102e25761010080835404028352916020019161030d565b820191906000526020600020905b8154815290600101906020018083116102f057829003601f168201915b5050505050905090565b6000336103258185856104f5565b60019150505b92915050565b60003361033f858285610507565b61034a858585610586565b506001949350505050565b6006546001600160a01b031633146103885760405162461bcd60e51b815260040161037f90610a2e565b60405180910390fd5b61039282826105e5565b5050565b61039e61061b565b6103a86000610648565b565b6103b261061b565b6001600160a01b0381166104145760405162461bcd60e51b8152602060048201526024808201527f57726170706564546f6b656e3a20627269646765206973207a65726f206164646044820152637265737360e01b606482015260840161037f565b600680546001600160a01b038381166001600160a01b0319831681179093556040519116919082907faae9beddccf584528e87b66c6ff2563825c8a1433305b8a656e9b5f9bf39049990600090a35050565b606060048054610294906109f4565b6006546001600160a01b0316331461049f5760405162461bcd60e51b815260040161037f90610a2e565b610392828261069a565b600033610325818585610586565b6104bf61061b565b6001600160a01b0381166104e957604051631e4fbdf760e01b81526000600482015260240161037f565b6104f281610648565b50565b61050283838360016106d0565b505050565b6001600160a01b03838116600090815260016020908152604080832093861683529290522054600019811015610580578181101561057157604051637dc7a0d960e11b81526001600160a01b0384166004820152602481018290526044810183905260640161037f565b610580848484840360006106d0565b50505050565b6001600160a01b0383166105b057604051634b637e8f60e11b81526000600482015260240161037f565b6001600160a01b0382166105da5760405163ec442f0560e01b81526000600482015260240161037f565b6105028383836107a5565b6001600160a01b03821661060f5760405163ec442f0560e01b81526000600482015260240161037f565b610392600083836107a5565b6005546001600160a01b031633146103a85760405163118cdaa760e01b815233600482015260240161037f565b600580546001600160a01b038381166001600160a01b0319831681179093556040519116919082907f8be0079c531659141344cd1fd0a4f28419497f9722a3daafe3b4186f6b6457e090600090a35050565b6001600160a01b0382166106c457604051634b637e8f60e11b81526000600482015260240161037f565b610392826000836107a5565b6001600160a01b0384166106fa5760405163e602df0560e01b81526000600482015260240161037f565b6001600160a01b03831661072457604051634a1406b160e11b81526000600482015260240161037f565b6001600160a01b038085166000908152600160209081526040808320938716835292905220829055801561058057826001600160a01b0316846001600160a01b03167f8c5be1e5ebec7d5bd14f71427d1e84f3dd0314c0f7b2291e5b200ac8c7c3b9258460405161079791815260200190565b60405180910390a350505050565b6001600160a01b0383166107d05780600260008282546107c59190610a74565b909155506108429050565b6001600160a01b038316600090815260208190526040902054818110156108235760405163391434e360e21b81526001600160a01b0385166004820152602481018290526044810183905260640161037f565b6001600160a01b03841660009081526020819052604090209082900390555b6001600160a01b03821661085e5760028054829003905561087d565b6001600160a01b03821660009081526020819052604090208054820190555b816001600160a01b0316836001600160a01b03167fddf252ad1be2c89b69c2b068fc378daa952ba7f163c4a11628f55a4df523b3ef836040516108c291815260200190565b60405180910390a3505050565b600060208083528351808285015260005b818110156108fc578581018301518582016040015282016108e0565b506000604082860101526040601f19601f8301168501019250505092915050565b80356001600160a01b038116811461093457600080fd5b919050565b6000806040838503121561094c57600080fd5b6109558361091d565b946020939093013593505050565b60008060006060848603121561097857600080fd5b6109818461091d565b925061098f6020850161091d565b9150604084013590509250925092565b6000602082840312156109b157600080fd5b6109ba8261091d565b9392505050565b600080604083850312156109d457600080fd5b6109dd8361091d565b91506109eb6020840161091d565b90509250929050565b600181811c90821680610a0857607f821691505b602082108103610a2857634e487b7160e01b600052602260045260246000fd5b50919050565b60208082526026908201527f57726170706564546f6b656e3a2063616c6c6572206973206e6f74207468652060408201526562726964676560d01b606082015260800190565b8082018082111561032b57634e487b7160e01b600052601160045260246000fdfea2646970667358221220d3a73442eb1d9e32be2d1ea1828555fd901bf8cb8d6c39bd4c844f6314b7fb2c64736f6c63430008140033",
  "linkReferences": {},
  "deployedLinkReferences": {}
}