{
  "_format": "hh-sol-artifact-1",
  "contractName": "SepoliaBridge",
  "sourceName": "contracts/SepoliaBridge.sol",
  "abi": [
    {
      "inputs": [
        {
          "internalType": "address",
          "name": "_token",
          "type": "address"
        }
      ],
      "stateMutability": "nonpayable",
      "type": "constructor"
    },
    {
      "inputs": [
        {
          "internalType": "address",
          "name": "owner",
          "type": "address"
        }
      ],
      "name": "OwnableInvalidOwner",
      "type": "error"
    },
    {
      "inputs": [
        {
          "internalType": "address",
          "name": "account",
          "type": "address"
        }
      ],
      "name": "OwnableUnauthorizedAccount",
      "type": "error"
    },
    {
      "inputs": [],
      "name": "ReentrancyGuardReentrantCall",
      "type": "error"
    },
    {
      "inputs": [
        {
          "internalType": "address",
          "name": "token",
          "type": "address"
        }
      ],
      "name": "SafeERC20FailedOperation",
      "type": "error"
    },
    {
      "anonymous": false,
      "inputs": [
        {
          "indexed": true,
          "internalType": "address",
          "name": "previousOwner",
          "type": "address"
        },
        {
          "indexed": true,
          "internalType": "address",
          "name": "newOwner",
          "type": "address"
        }
      ],
      "name": "OwnershipTransferred",
      "type": "event"
    },
    {
      "anonymous": false,
      "inputs": [
        {
          "indexed": true,
          "internalType": "address",
          "name": "oldRelayer",
          "type": "address"
        },
        {
          "indexed": true,
          "internalType": "address",
          "name": "newRelayer",
          "type": "address"
        }
      ],
      "name": "RelayerUpdated",
      "type": "event"
    },
    {
      "anonymous": false,
      "inputs": [
        {
          "indexed": true,
          "internalType": "address",
          "name": "sender",
          "type": "address"
        },
        {
          "indexed": false,
          "internalType": "uint256",
          "name": "amount",
          "type": "uint256"
        },
        {
          "indexed": false,
          "internalType": "uint256",
          "name": "nonce",
          "type": "uint256"
        },
        {
          "indexed": false,
          "internalType": "uint256",
          "name": "timestamp",
          "type": "uint256"
        }
      ],
      "name": "TokensLocked",
      "type": "event"
    },
    {
      "anonymous": false,
      "inputs": [
        {
          "indexed": true,
          "internalType": "address",
          "name": "recipient",
          "type": "address"
        },
        {
          "indexed": false,
          "internalType": "uint256",
          "name": "amount",
          "type": "uint256"
        },
        {
          "indexed": false,
          "internalType": "uint256",
          "name": "nonce",
          "type": "uint256"
        },
        {
          "indexed": false,
          "internalType": "uint256",
          "name": "timestamp",
          "type": "uint256"
        }
      ],
      "name": "TokensReleased",
      "type": "event"
    },
    {
      "inputs": [],
      "name": "getLockedBalance",
      "outputs": [
        {
          "internalType": "uint256",
          "name": "",
          "type": "uint256"
        }
      ],
      "stateMutability": "view",
      "type": "function"
    },
    {
      "inputs": [
        {
          "internalType": "uint256",
          "name": "amount",
          "type": "uint256"
        }
      ],
      "name": "lockTokens",
      "outputs": [],
      "stateMutability": "nonpayable",
      "type": "function"
    },
    {
      "inputs": [],
      "name": "nonce",
      "outputs": [
        {
          "internalType": "uint256",
          "name": "",
          "type": "uint256"
        }
      ],
      "stateMutability": "view",
      "type": "function"
    },
    {
      "inputs": [],
      "name": "owner",
      "outputs": [
        {
          "internalType": "address",
          "name": "",
          "type": "address"
        }
      ],
      "stateMutability": "view",
      "type": "function"
    },
    {
      "inputs": [
        {
          "internalType": "uint256",
          "name": "",
          "type": "uint256"
        }
      ],
      "name": "processedNonces",
      "outputs": [
        {
          "internalType": "bool",
          "name": "",
          "type": "bool"
        }
      ],
      "stateMutability": "view",
      "type": "function"
    },
    {
      "inputs": [],
      "name": "relayer",
      "outputs": [
        {
          "internalType": "address",
          "name": "",
          "type": "address"
        }
      ],
      "stateMutability": "view",
      "type": "function"
    },
    {
      "inputs": [
        {
          "internalType": "address",
          "name": "to",
          "type": "address"
        },
        {
          "internalType": "uint256",
          "name": "amount",
          "type": "uint256"
        },
        {
          "internalType": "uint256",
          "name": "_nonce",
          "type": "uint256"
        }
      ],
      "name": "releaseTokens",
      "outputs": [],
      "stateMutability": "nonpayable",
      "type": "function"
    },
    {
      "inputs": [],
      "name": "renounceOwnership",
      "outputs": [],
      "stateMutability": "nonpayable",
      "type": "function"
    },
    {
      "inputs": [
        {
          "internalType": "address",
          "name": "_relayer",
          "type": "address"
        }
      ],
      "name": "setRelayer",
      "outputs": [],
      "stateMutability": "nonpayable",
      "type": "function"
    },
    {
      "inputs": [],
      "name": "token",
      "outputs": [
        {
          "internalType": "contract IERC20",
          "name": "",
          "type": "address"
        }
      ],
      "stateMutability": "view",
      "type": "function"
    },
    {
      "inputs": [
        {
          "internalType": "address",
          "name": "newOwner",
          "type": "address"
        }
      ],
      "name": "transferOwnership",
      "outputs": [],
      "stateMutability": "nonpayable",
      "type": "function"
    }
  ],
  "bytecode": "0x60a060405234801561001057600080fd5b50604051610b68380380610b6883398101604081905261002f91610147565b338061005657604051631e4fbdf760e01b8152600060048201526024015b60405180910390fd5b61005f816100f7565b5060017f9b779b17422d0df92223018b32b4d1fa46e071723d6817e2486d003becc55f00556001600160a01b0381166100e65760405162461bcd60e51b8152602060048201526024808201527f5365706f6c69614272696467653a20746f6b656e206973207a65726f206164646044820152637265737360e01b606482015260840161004d565b6001600160a01b0316608052610177565b600080546001600160a01b038381166001600160a01b0319831681178455604051919092169283917f8be0079c531659141344cd1fd0a4f28419497f9722a3daafe3b4186f6b6457e09190a35050565b60006020828403121561015957600080fd5b81516001600160a01b038116811461017057600080fd5b9392505050565b6080516109c16101a76000396000818161019c015281816101d6015281816103e1015261056301526109c16000f3fe608060405234801561001057600080fd5b50600436106100a95760003560e01c80638406c079116100715780638406c0791461010c5780638da5cb5b1461013757806391dae51914610148578063affed0e01461017b578063f2fde38b14610184578063fc0c546a1461019757600080fd5b80632549e0b1146100ae578063628efcd7146100c95780636548e9bc146100de5780636e27d889146100f1578063715018a614610104575b600080fd5b6100b66101be565b6040519081526020015b60405180910390f35b6100dc6100d736600461087c565b61024e565b005b6100dc6100ec3660046108af565b61046f565b6100dc6100ff3660046108d1565b61052e565b6100dc6105ff565b60015461011f906001600160a01b031681565b6040516001600160a01b0390911681526020016100c0565b6000546001600160a01b031661011f565b61016b6101563660046108d1565b60036020526000908152604090205460ff1681565b60405190151581526020016100c0565b6100b660025481565b6100dc6101923660046108af565b610613565b61011f7f000000000000000000000000000000000000000000000000000000000000000081565b6040516370a0823160e01b81523060048201526000907f00000000000000000000000000000000000000000000000000000000000000006001600160a01b0316906370a0823190602401602060405180830381865afa158015610225573d6000803e3d6000fd5b505050506040513d601f19601f8201168201806040525081019061024991906108ea565b905090565b6001546001600160a01b031633146102be5760405162461bcd60e51b815260206004820152602860248201527f5365706f6c69614272696467653a2063616c6c6572206973206e6f7420746865604482015267103932b630bcb2b960c11b60648201526084015b60405180910390fd5b6102c661064e565b6001600160a01b03831661032d5760405162461bcd60e51b815260206004820152602860248201527f5365706f6c69614272696467653a20726563697069656e74206973207a65726f604482015267206164647265737360c01b60648201526084016102b5565b6000821161034d5760405162461bcd60e51b81526004016102b590610903565b60008181526003602052604090205460ff16156103bb5760405162461bcd60e51b815260206004820152602660248201527f5365706f6c69614272696467653a206e6f6e636520616c72656164792070726f60448201526518d95cdcd95960d21b60648201526084016102b5565b6000818152600360205260409020805460ff191660011790556104086001600160a01b037f000000000000000000000000000000000000000000000000000000000000000016848461066a565b6040805183815260208101839052428183015290516001600160a01b038516917f8b81fe67377346f7a0a4a369e94f00c5ae54efa1ff15df40b4d54554e164525a919081900360600190a261046a600160008051602061096c83398151915255565b505050565b61047761069f565b6001600160a01b0381166104dc5760405162461bcd60e51b815260206004820152602660248201527f5365706f6c69614272696467653a2072656c61796572206973207a65726f206160448201526564647265737360d01b60648201526084016102b5565b600180546001600160a01b038381166001600160a01b0319831681179093556040519116919082907f605ca4e43489fb38b91aa63dd9147cd3847957694b080b9285ec898b34269f0c90600090a35050565b61053661064e565b600081116105565760405162461bcd60e51b81526004016102b590610903565b61058b6001600160a01b037f0000000000000000000000000000000000000000000000000000000000000000163330846106cc565b60028054908190600061059d83610944565b909155505060408051838152602081018390524281830152905133917f90e20a62e0f2a608d33bd96a4e15cb853006a15caf4455f373b7b55de520b68c919081900360600190a2506105fc600160008051602061096c83398151915255565b50565b61060761069f565b6106116000610708565b565b61061b61069f565b6001600160a01b03811661064557604051631e4fbdf760e01b8152600060048201526024016102b5565b6105fc81610708565b610656610758565b600260008051602061096c83398151915255565b6106778383836001610788565b61046a57604051635274afe760e01b81526001600160a01b03841660048201526024016102b5565b6000546001600160a01b031633146106115760405163118cdaa760e01b81523360048201526024016102b5565b6106da8484848460016107ee565b61070257604051635274afe760e01b81526001600160a01b03851660048201526024016102b5565b50505050565b600080546001600160a01b038381166001600160a01b0319831681178455604051919092169283917f8be0079c531659141344cd1fd0a4f28419497f9722a3daafe3b4186f6b6457e09190a35050565b60008051602061096c8339815191525460020361061157604051633ee5aeb560e01b815260040160405180910390fd5b60405163a9059cbb60e01b60008181526001600160a01b038616600452602485905291602083604481808b5af1925060016000511483166107e25783831516156107d5573d6000823e3d81fd5b6000873b113d1516831692505b60405250949350505050565b6040516323b872dd60e01b60008181526001600160a01b038781166004528616602452604485905291602083606481808c5af19250600160005114831661084e578383151615610841573d6000823e3d81fd5b6000883b113d1516831692505b60405250600060605295945050505050565b80356001600160a01b038116811461087757600080fd5b919050565b60008060006060848603121561089157600080fd5b61089a84610860565b95602085013595506040909401359392505050565b6000602082840312156108c157600080fd5b6108ca82610860565b9392505050565b6000602082840312156108e357600080fd5b5035919050565b6000602082840312156108fc57600080fd5b5051919050565b60208082526021908201527f5365706f6c69614272696467653a20616d6f756e74206d757374206265203e206040820152600360fc1b606082015260800190565b60006001820161096457634e487b7160e01b600052601160045260246000fd5b506001019056fe9b779b17422d0df92223018b32b4d1fa46e071723d6817e2486d003becc55f00a2646970667358221220bcc31d01c8f7d06ae701438c8638d5b03d37f298839cb28c9ee4b23de186700364736f6c63430008140033",
  "linkReferences": {},
  "deployedLinkReferences": {}
}