{
  "_format": "hh-sol-artifact-1",
  "contractName": "SonicBridge",
  "sourceName": "contracts/SonicBridge.sol",
  "abi": [
    {
      "inputs": [
        {
          "internalType": "address",
          "name": "_wrappedToken",
          "type": "address"
        }
      ],
      "stateMutability": "nonpayable",
      "type": "constructor"
    },
    {
      "inputs": [
        {
          "internalType": "address",
          "name": "owner",
          "type": "address"
        }
      ],
      "name": "OwnableInvalidOwner",
      "type": "error"
    },
    {
      "inputs": [
        {
          "internalType": "address",
          "name": "account",
          "type": "address"
        }
      ],
      "name": "OwnableUnauthorizedAccount",
      "type": "error"
    },
    {
      "inputs": [],
      "name": "ReentrancyGuardReentrantCall",
      "type": "error"
    },
    {
      "anonymous": false,
      "inputs": [
        {
          "indexed": true,
          "internalType": "address",
          "name": "previousOwner",
          "type": "address"
        },
        {
          "indexed": true,
          "internalType": "address",
          "name": "newOwner",
          "type": "address"
        }
      ],
      "name": "OwnershipTransferred",
      "type": "event"
    },
    {
      "anonymous": false,
      "inputs": [
        {
          "indexed": true,
          "internalType": "address",
          "name": "oldRelayer",
          "type": "address"
        },
        {
          "indexed": true,
          "internalType": "address",
          "name": "newRelayer",
          "type": "address"
        }
      ],
      "name": "RelayerUpdated",
      "type": "event"
    },
    {
      "anonymous": false,
      "inputs": [
        {
          "indexed": true,
          "internalType": "address",
          "name": "sender",
          "type": "address"
        },
        {
          "indexed": false,
          "internalType": "uint256",
          "name": "amount",
          "type": "uint256"
        },
        {
          "indexed": false,
          "internalType": "uint256",
          "name": "nonce",
          "type": "uint256"
        },
        {
          "indexed": false,
          "internalType": "uint256",
          "name": "timestamp",
          "type": "uint256"
        }
      ],
      "name": "TokensBurned",
      "type": "event"
    },
    {
      "anonymous": false,
      "inputs": [
        {
          "indexed": true,
          "internalType": "address",
          "name": "recipient",
          "type": "address"
        },
        {
          "indexed": false,
          "internalType": "uint256",
          "name": "amount",
          "type": "uint256"
        },
        {
          "indexed": false,
          "internalType": "uint256",
          "name": "nonce",
          "type": "uint256"
        },
        {
          "indexed": false,
          "internalType": "uint256",
          "name": "timestamp",
          "type": "uint256"
        }
      ],
      "name": "TokensMinted",
      "type": "event"
    },
    {
      "inputs": [
        {
          "internalType": "uint256",
          "name": "amount",
          "type": "uint256"
        }
      ],
      "name": "burnWrapped",
      "outputs": [],
      "stateMutability": "nonpayable",
      "type": "function"
    },
    {
      "inputs": [],
      "name": "getTotalMinted",
      "outputs": [
        {
          "internalType": "uint256",
          "name": "",
          "type": "uint256"
        }
      ],
      "stateMutability": "view",
      "type": "function"
    },
    {
      "inputs": [
        {
          "internalType": "address",
          "name": "to",
          "type": "address"
        },
        {
          "internalType": "uint256",
          "name": "amount",
          "type": "uint256"
        },
        {
          "internalType": "uint256",
          "name": "_nonce",
          "type": "uint256"
        }
      ],
      "name": "mintWrapped",
      "outputs": [],
      "stateMutability": "nonpayable",
      "type": "function"
    },
    {
      "inputs": [],
      "name": "nonce",
      "outputs": [
        {
          "internalType": "uint256",
          "name": "",
          "type": "uint256"
        }
      ],
      "stateMutability": "view",
      "type": "function"
    },
    {
      "inputs": [],
      "name": "owner",
      "outputs": [
        {
          "internalType": "address",
          "name": "",
          "type": "address"
        }
      ],
      "stateMutability": "view",
      "type": "function"
    },
    {
      "inputs": [
        {
          "internalType": "uint256",
          "name": "",
          "type": "uint256"
        }
      ],
      "name": "processedNonces",
      "outputs": [
        {
          "internalType": "bool",
          "name": "",
          "type": "bool"
        }
      ],
      "stateMutability": "view",
      "type": "function"
    },
    {
      "inputs": [],
      "name": "relayer",
      "outputs": [
        {
          "internalType": "address",
          "name": "",
          "type": "address"
        }
      ],
      "stateMutability": "view",
      "type": "function"
    },
    {
      "inputs": [],
      "name": "renounceOwnership",
      "outputs": [],
      "stateMutability": "nonpayable",
      "type": "function"
    },
    {
      "inputs": [
        {
          "internalType": "address",
          "name": "_relayer",
          "type": "address"
        }
      ],
      "name": "setRelayer",
      "outputs": [],
      "stateMutability": "nonpayable",
      "type": "function"
    },
    {
      "inputs": [
        {
          "internalType": "address",
          "name": "newOwner",
          "type": "address"
        }
      ],
      "name": "transferOwnership",
      "outputs": [],
      "stateMutability": "nonpayable",
      "type": "function"
    },
    {
      "inputs": [],
      "name": "wrappedToken",
      "outputs": [
        {
          "internalType": "contract WrappedToken",
          "name": "",
          "type": "address"
        }
      ],
      "stateMutability": "view",
      "type": "function"
    }
  ],
  "bytecode": "0x60a060405234801561001057600080fd5b50604051610ac5380380610ac583398101604081905261002f91610146565b338061005657604051631e4fbdf760e01b8152600060048201526024015b60405180910390fd5b61005f816100f6565b5060017f9b779b17422d0df92223018b32b4d1fa46e071723d6817e2486d003becc55f00556001600160a01b0381166100e55760405162461bcd60e51b815260206004820152602260248201527f536f6e69634272696467653a20746f6b656e206973207a65726f206164647265604482015261737360f01b606482015260840161004d565b6001600160a01b0316608052610176565b600080546001600160a01b038381166001600160a01b0319831681178455604051919092169283917f8be0079c531659141344cd1fd0a4f28419497f9722a3daafe3b4186f6b6457e09190a35050565b60006020828403121561015857600080fd5b81516001600160a01b038116811461016f57600080fd5b9392505050565b60805161091f6101a660003960008181610180015281816101c2015281816102d70152610568015261091f6000f3fe608060405234801561001057600080fd5b50600436106100a95760003560e01c80638406c079116100715780638406c0791461010c5780638da5cb5b1461013757806391dae51914610148578063996c6cc31461017b578063affed0e0146101a2578063f2fde38b146101ab57600080fd5b80630ca1c5c9146100ae5780633a9d8ed5146100c9578063496ec30d146100de5780636548e9bc146100f1578063715018a614610104575b600080fd5b6100b66101be565b6040519081526020015b60405180910390f35b6100dc6100d73660046107ff565b610247565b005b6100dc6100ec366004610834565b610398565b6100dc6100ff366004610867565b61062b565b6100dc6106e7565b60015461011f906001600160a01b031681565b6040516001600160a01b0390911681526020016100c0565b6000546001600160a01b031661011f565b61016b6101563660046107ff565b60036020526000908152604090205460ff1681565b60405190151581526020016100c0565b61011f7f000000000000000000000000000000000000000000000000000000000000000081565b6100b660025481565b6100dc6101b9366004610867565b6106fb565b60007f00000000000000000000000000000000000000000000000000000000000000006001600160a01b03166318160ddd6040518163ffffffff1660e01b8152600401602060405180830381865afa15801561021e573d6000803e3d6000fd5b505050506040513d601f19601f820116820180604052508101906102429190610889565b905090565b61024f610736565b600081116102a45760405162461bcd60e51b815260206004820152601f60248201527f536f6e69634272696467653a20616d6f756e74206d757374206265203e20300060448201526064015b60405180910390fd5b6002805490819060006102b6836108a2565b9091555050604051632770a7eb60e21b8152336004820152602481018390527f00000000000000000000000000000000000000000000000000000000000000006001600160a01b031690639dc29fac90604401600060405180830381600087803b15801561032357600080fd5b505af1158015610337573d6000803e3d6000fd5b50506040805185815260208101859052428183015290513393507f19783b34589160c168487dc7f9c51ae0bcefe67a47d6708fba90f6ce0366d3d192509081900360600190a25061039560016000805160206108ca83398151915255565b50565b6001546001600160a01b031633146104015760405162461bcd60e51b815260206004820152602660248201527f536f6e69634272696467653a2063616c6c6572206973206e6f7420746865207260448201526532b630bcb2b960d11b606482015260840161029b565b610409610736565b6001600160a01b03831661046e5760405162461bcd60e51b815260206004820152602660248201527f536f6e69634272696467653a20726563697069656e74206973207a65726f206160448201526564647265737360d01b606482015260840161029b565b600082116104be5760405162461bcd60e51b815260206004820152601f60248201527f536f6e69634272696467653a20616d6f756e74206d757374206265203e203000604482015260640161029b565b60008181526003602052604090205460ff16156105295760405162461bcd60e51b8152602060048201526024808201527f536f6e69634272696467653a206e6f6e636520616c72656164792070726f63656044820152631cdcd95960e21b606482015260840161029b565b60008181526003602052604090819020805460ff19166001179055516340c10f1960e01b81526001600160a01b038481166004830152602482018490527f000000000000000000000000000000000000000000000000000000000000000016906340c10f1990604401600060405180830381600087803b1580156105ac57600080fd5b505af11580156105c0573d6000803e3d6000fd5b50506040805185815260208101859052428183015290516001600160a01b03871693507f6155cfd0fd028b0ca77e8495a60cbe563e8bce8611f0aad6fedbdaafc05d44a292509081900360600190a261062660016000805160206108ca83398151915255565b505050565b610633610752565b6001600160a01b0381166106955760405162461bcd60e51b8152602060048201526024808201527f536f6e69634272696467653a2072656c61796572206973207a65726f206164646044820152637265737360e01b606482015260840161029b565b600180546001600160a01b038381166001600160a01b0319831681179093556040519116919082907f605ca4e43489fb38b91aa63dd9147cd3847957694b080b9285ec898b34269f0c90600090a35050565b6106ef610752565b6106f9600061077f565b565b610703610752565b6001600160a01b03811661072d57604051631e4fbdf760e01b81526000600482015260240161029b565b6103958161077f565b61073e6107cf565b60026000805160206108ca83398151915255565b6000546001600160a01b031633146106f95760405163118cdaa760e01b815233600482015260240161029b565b600080546001600160a01b038381166001600160a01b0319831681178455604051919092169283917f8be0079c531659141344cd1fd0a4f28419497f9722a3daafe3b4186f6b6457e09190a35050565b6000805160206108ca833981519152546002036106f957604051633ee5aeb560e01b815260040160405180910390fd5b60006020828403121561081157600080fd5b5035919050565b80356001600160a01b038116811461082f57600080fd5b919050565b60008060006060848603121561084957600080fd5b61085284610818565b95602085013595506040909401359392505050565b60006020828403121561087957600080fd5b61088282610818565b9392505050565b60006020828403121561089b57600080fd5b5051919050565b6000600182016108c257634e487b7160e01b600052601160045260246000fd5b506001019056fe9b779b17422d0df92223018b32b4d1fa46e071723d6817e2486d003becc55f00a2646970667358221220b7ac4a4810a83d10ec74a54e2292da741cb66b8b48c7952e050e5e039ab9242e64736f6c63430008140033",
  "linkReferences": {},
  "deployedLinkReferences": {}
}